{
  "_format": "hh-sol-artifact-1",
  "contractName": "TokenExchange",
  "sourceName": "contracts/exchange.sol",
  "abi": [
    {
      "inputs": [],
      "stateMutability": "nonpayable",
      "type": "constructor"
    },
    {
      "anonymous": false,
      "inputs": [
        {
          "indexed": true,
          "internalType": "address",
          "name": "previousOwner",
          "type": "address"
        },
        {
          "indexed": true,
          "internalType": "address",
          "name": "newOwner",
          "type": "address"
        }
      ],
      "name": "OwnershipTransferred",
      "type": "event"
    },
    {
      "anonymous": false,
      "inputs": [
        {
          "indexed": false,
          "internalType": "uint256",
          "name": "number",
          "type": "uint256"
        }
      ],
      "name": "paymentRecieve",
      "type": "event"
    },
    {
      "inputs": [
        {
          "internalType": "uint256",
          "name": "min_rate",
          "type": "uint256"
        },
        {
          "internalType": "uint256",
          "name": "max_rate",
          "type": "uint256"
        }
      ],
      "name": "addLiquidity",
      "outputs": [],
      "stateMutability": "payable",
      "type": "function"
    },
    {
      "inputs": [
        {
          "internalType": "uint256",
          "name": "amountTokens",
          "type": "uint256"
        }
      ],
      "name": "createPool",
      "outputs": [],
      "stateMutability": "payable",
      "type": "function"
    },
    {
      "inputs": [],
      "name": "exchange_name",
      "outputs": [
        {
          "internalType": "string",
          "name": "",
          "type": "string"
        }
      ],
      "stateMutability": "view",
      "type": "function"
    },
    {
      "inputs": [],
      "name": "getReserves",
      "outputs": [
        {
          "internalType": "uint256",
          "name": "",
          "type": "uint256"
        },
        {
          "internalType": "uint256",
          "name": "",
          "type": "uint256"
        }
      ],
      "stateMutability": "view",
      "type": "function"
    },
    {
      "inputs": [],
      "name": "getSwapFee",
      "outputs": [
        {
          "internalType": "uint256",
          "name": "",
          "type": "uint256"
        },
        {
          "internalType": "uint256",
          "name": "",
          "type": "uint256"
        }
      ],
      "stateMutability": "view",
      "type": "function"
    },
    {
      "inputs": [],
      "name": "owner",
      "outputs": [
        {
          "internalType": "address",
          "name": "",
          "type": "address"
        }
      ],
      "stateMutability": "view",
      "type": "function"
    },
    {
      "inputs": [
        {
          "internalType": "uint256",
          "name": "min_rate",
          "type": "uint256"
        },
        {
          "internalType": "uint256",
          "name": "max_rate",
          "type": "uint256"
        }
      ],
      "name": "removeAllLiquidity",
      "outputs": [],
      "stateMutability": "payable",
      "type": "function"
    },
    {
      "inputs": [
        {
          "internalType": "uint256",
          "name": "amountETH",
          "type": "uint256"
        },
        {
          "internalType": "uint256",
          "name": "min_rate",
          "type": "uint256"
        },
        {
          "internalType": "uint256",
          "name": "max_rate",
          "type": "uint256"
        }
      ],
      "name": "removeLiquidity",
      "outputs": [],
      "stateMutability": "payable",
      "type": "function"
    },
    {
      "inputs": [],
      "name": "renounceOwnership",
      "outputs": [],
      "stateMutability": "nonpayable",
      "type": "function"
    },
    {
      "inputs": [
        {
          "internalType": "uint256",
          "name": "max_rate",
          "type": "uint256"
        }
      ],
      "name": "swapETHForTokens",
      "outputs": [],
      "stateMutability": "payable",
      "type": "function"
    },
    {
      "inputs": [
        {
          "internalType": "uint256",
          "name": "amountTokens",
          "type": "uint256"
        },
        {
          "internalType": "uint256",
          "name": "max_rate",
          "type": "uint256"
        }
      ],
      "name": "swapTokensForETH",
      "outputs": [],
      "stateMutability": "payable",
      "type": "function"
    },
    {
      "inputs": [],
      "name": "token",
      "outputs": [
        {
          "internalType": "contract Token",
          "name": "",
          "type": "address"
        }
      ],
      "stateMutability": "view",
      "type": "function"
    },
    {
      "inputs": [
        {
          "internalType": "address",
          "name": "newOwner",
          "type": "address"
        }
      ],
      "name": "transferOwnership",
      "outputs": [],
      "stateMutability": "nonpayable",
      "type": "function"
    }
  ],
  "bytecode": "0x60806040526040518060400160405280600681526020017f4344537761700000000000000000000000000000000000000000000000000000815250600190816200004a9190620004ac565b50735fbdb2315678afecb367f032d93f642f64180aa3600260006101000a81548173ffffffffffffffffffffffffffffffffffffffff021916908373ffffffffffffffffffffffffffffffffffffffff160217905550600260009054906101000a900473ffffffffffffffffffffffffffffffffffffffff16600360006101000a81548173ffffffffffffffffffffffffffffffffffffffff021916908373ffffffffffffffffffffffffffffffffffffffff16021790555060006004556000600555600060065560006007556000600a556003600b556064600c55670de0b6b3a7640000600e553480156200013f57600080fd5b5062000160620001546200016660201b60201c565b6200016e60201b60201c565b62000593565b600033905090565b60008060009054906101000a900473ffffffffffffffffffffffffffffffffffffffff169050816000806101000a81548173ffffffffffffffffffffffffffffffffffffffff021916908373ffffffffffffffffffffffffffffffffffffffff1602179055508173ffffffffffffffffffffffffffffffffffffffff168173ffffffffffffffffffffffffffffffffffffffff167f8be0079c531659141344cd1fd0a4f28419497f9722a3daafe3b4186f6b6457e060405160405180910390a35050565b600081519050919050565b7f4e487b7100000000000000000000000000000000000000000000000000000000600052604160045260246000fd5b7f4e487b7100000000000000000000000000000000000000000000000000000000600052602260045260246000fd5b60006002820490506001821680620002b457607f821691505b602082108103620002ca57620002c96200026c565b5b50919050565b60008190508160005260206000209050919050565b60006020601f8301049050919050565b600082821b905092915050565b600060088302620003347fffffffffffffffffffffffffffffffffffffffffffffffffffffffffffffffff82620002f5565b620003408683620002f5565b95508019841693508086168417925050509392505050565b6000819050919050565b6000819050919050565b60006200038d62000387620003818462000358565b62000362565b62000358565b9050919050565b6000819050919050565b620003a9836200036c565b620003c1620003b88262000394565b84845462000302565b825550505050565b600090565b620003d8620003c9565b620003e58184846200039e565b505050565b5b818110156200040d5762000401600082620003ce565b600181019050620003eb565b5050565b601f8211156200045c576200042681620002d0565b6200043184620002e5565b8101602085101562000441578190505b620004596200045085620002e5565b830182620003ea565b50505b505050565b600082821c905092915050565b6000620004816000198460080262000461565b1980831691505092915050565b60006200049c83836200046e565b9150826002028217905092915050565b620004b78262000232565b67ffffffffffffffff811115620004d357620004d26200023d565b5b620004df82546200029b565b620004ec82828562000411565b600060209050601f8311600181146200052457600084156200050f578287015190505b6200051b85826200048e565b8655506200058b565b601f1984166200053486620002d0565b60005b828110156200055e5784890151825560018201915060208501945060208101905062000537565b868310156200057e57848901516200057a601f8916826200046e565b8355505b6001600288020188555050505b505050505050565b61318980620005a36000396000f3fe6080604052600436106100c25760003560e01c80638da5cb5b1161007f578063d4cadf6811610059578063d4cadf68146101dd578063f2fde38b14610209578063f694f7d114610232578063fc0c546a1461025d576100c2565b80638da5cb5b1461017a5780639cd441da146101a5578063a22280a6146101c1576100c2565b80630902f1ac146100c75780632eab2841146100f357806358ad6de41461010f578063715018a61461012b5780638259e6a014610142578063857620e11461015e575b600080fd5b3480156100d357600080fd5b506100dc610288565b6040516100ea92919061200d565b60405180910390f35b61010d60048036038101906101089190612067565b610299565b005b61012960048036038101906101249190612094565b610533565b005b34801561013757600080fd5b506101406105de565b005b61015c60048036038101906101579190612067565b6105f2565b005b610178600480360381019061017391906120d4565b6109a2565b005b34801561018657600080fd5b5061018f6111b3565b60405161019c9190612168565b60405180910390f35b6101bf60048036038101906101ba9190612094565b6111dc565b005b6101db60048036038101906101d69190612094565b61184a565b005b3480156101e957600080fd5b506101f2611c25565b60405161020092919061200d565b60405180910390f35b34801561021557600080fd5b50610230600480360381019061022b91906121af565b611c36565b005b34801561023e57600080fd5b50610247611cb9565b604051610254919061226c565b60405180910390f35b34801561026957600080fd5b50610272611d47565b60405161027f91906122ed565b60405180910390f35b600080600554600454915091509091565b600160045410156102df576040517f08c379a00000000000000000000000000000000000000000000000000000000081526004016102d690612354565b60405180910390fd5b60003411610322576040517f08c379a0000000000000000000000000000000000000000000000000000000008152600401610319906123e6565b60405180910390fd5b80600454670de0b6b3a764000060055461033c9190612435565b61034691906124a6565b1115610387576040517f08c379a000000000000000000000000000000000000000000000000000000000815260040161037e90612549565b60405180910390fd5b6000606434600b54606461039b9190612569565b6103a59190612435565b6103af91906124a6565b6005546103bc919061259d565b6005546004546103cc9190612435565b6103d691906124a6565b6004546103e39190612569565b905047600581905550600360009054906101000a900473ffffffffffffffffffffffffffffffffffffffff1673ffffffffffffffffffffffffffffffffffffffff1663a9059cbb33836040518363ffffffff1660e01b81526004016104499291906125d1565b6020604051808303816000875af1158015610468573d6000803e3d6000fd5b505050506040513d601f19601f8201168201806040525081019061048c9190612632565b50600360009054906101000a900473ffffffffffffffffffffffffffffffffffffffff1673ffffffffffffffffffffffffffffffffffffffff166370a08231306040518263ffffffff1660e01b81526004016104e89190612168565b602060405180830381865afa158015610505573d6000803e3d6000fd5b505050506040513d601f19601f820116820180604052508101906105299190612674565b6004819055505050565b6000670de0b6b3a7640000600554600860003373ffffffffffffffffffffffffffffffffffffffff1673ffffffffffffffffffffffffffffffffffffffff1681526020019081526020016000205461058b9190612435565b61059591906124a6565b90507fb1aec1c686a8cfa248785465f88a8e2a1fdfa125717ba9f0e27d4261a80d83ce816040516105c691906126a1565b60405180910390a16105d98184846109a2565b505050565b6105e6611d6d565b6105f06000611deb565b565b6105fa611d6d565b60006004541461063f576040517f08c379a000000000000000000000000000000000000000000000000000000000815260040161063690612708565b60405180910390fd5b600060055414610684576040517f08c379a000000000000000000000000000000000000000000000000000000000815260040161067b90612774565b60405180910390fd5b600034116106c7576040517f08c379a00000000000000000000000000000000000000000000000000000000081526004016106be906127e0565b60405180910390fd5b6000600360009054906101000a900473ffffffffffffffffffffffffffffffffffffffff1673ffffffffffffffffffffffffffffffffffffffff166370a08231336040518263ffffffff1660e01b81526004016107249190612168565b602060405180830381865afa158015610741573d6000803e3d6000fd5b505050506040513d601f19601f820116820180604052508101906107659190612674565b9050808211156107aa576040517f08c379a00000000000000000000000000000000000000000000000000000000081526004016107a190612872565b60405180910390fd5b600082116107ed576040517f08c379a00000000000000000000000000000000000000000000000000000000081526004016107e4906128de565b60405180910390fd5b600360009054906101000a900473ffffffffffffffffffffffffffffffffffffffff1673ffffffffffffffffffffffffffffffffffffffff166323b872dd3330856040518463ffffffff1660e01b815260040161084c939291906128fe565b6020604051808303816000875af115801561086b573d6000803e3d6000fd5b505050506040513d601f19601f8201168201806040525081019061088f9190612632565b50600360009054906101000a900473ffffffffffffffffffffffffffffffffffffffff1673ffffffffffffffffffffffffffffffffffffffff166370a08231306040518263ffffffff1660e01b81526004016108eb9190612168565b602060405180830381865afa158015610908573d6000803e3d6000fd5b505050506040513d601f19601f8201168201806040525081019061092c9190612674565b600481905550346005819055506005546004546109499190612435565b600d81905550620186a0600a819055506064600860003373ffffffffffffffffffffffffffffffffffffffff1673ffffffffffffffffffffffffffffffffffffffff168152602001908152602001600020819055505050565b600160045410156109e8576040517f08c379a00000000000000000000000000000000000000000000000000000000081526004016109df90612354565b60405180910390fd5b60016005541015610a2e576040517f08c379a0000000000000000000000000000000000000000000000000000000008152600401610a2590612354565b60405180910390fd5b60008311610a71576040517f08c379a0000000000000000000000000000000000000000000000000000000008152600401610a68906129a7565b60405180910390fd5b600060055460045485610a849190612435565b610a8e91906124a6565b9050600454600860003373ffffffffffffffffffffffffffffffffffffffff1673ffffffffffffffffffffffffffffffffffffffff16815260200190815260200160002054610add9190612435565b670de0b6b3a764000082610af19190612435565b1115610b32576040517f08c379a0000000000000000000000000000000000000000000000000000000008152600401610b2990612a39565b60405180910390fd5b8281670de0b6b3a764000086610b489190612435565b610b5291906124a6565b1015610b93576040517f08c379a0000000000000000000000000000000000000000000000000000000008152600401610b8a90612aa5565b60405180910390fd5b8181670de0b6b3a764000086610ba99190612435565b610bb391906124a6565b1115610bf4576040517f08c379a0000000000000000000000000000000000000000000000000000000008152600401610beb90612b11565b60405180910390fd5b600084600554610c049190612569565b11610c44576040517f08c379a0000000000000000000000000000000000000000000000000000000008152600401610c3b90612ba3565b60405180910390fd5b600081600454610c549190612569565b11610c94576040517f08c379a0000000000000000000000000000000000000000000000000000000008152600401610c8b90612ba3565b60405180910390fd5b60006004549050600360009054906101000a900473ffffffffffffffffffffffffffffffffffffffff1673ffffffffffffffffffffffffffffffffffffffff1663a9059cbb33846040518363ffffffff1660e01b8152600401610cf89291906125d1565b6020604051808303816000875af1158015610d17573d6000803e3d6000fd5b505050506040513d601f19601f82011682018060405250810190610d3b9190612632565b50600360009054906101000a900473ffffffffffffffffffffffffffffffffffffffff1673ffffffffffffffffffffffffffffffffffffffff166370a08231306040518263ffffffff1660e01b8152600401610d979190612168565b602060405180830381865afa158015610db4573d6000803e3d6000fd5b505050506040513d601f19601f82011682018060405250810190610dd89190612674565b6004819055503373ffffffffffffffffffffffffffffffffffffffff166108fc869081150290604051600060405180830381858888f19350505050158015610e24573d6000803e3d6000fd5b50476005819055506000600454670de0b6b3a764000084610e459190612435565b83600860003373ffffffffffffffffffffffffffffffffffffffff1673ffffffffffffffffffffffffffffffffffffffff16815260200190815260200160002054610e909190612435565b610e9a9190612569565b610ea491906124a6565b9050670de0b6b3a7640000606484600454610ebf9190612569565b83610eca9190612435565b610ed491906124a6565b1080610f0b5750670de0b6b3a7640000606487600554610ef49190612569565b83610eff9190612435565b610f0991906124a6565b105b15610f5a576000600860003373ffffffffffffffffffffffffffffffffffffffff1673ffffffffffffffffffffffffffffffffffffffff16815260200190815260200160002081905550610f9f565b80600860003373ffffffffffffffffffffffffffffffffffffffff1673ffffffffffffffffffffffffffffffffffffffff168152602001908152602001600020819055505b600080600090505b600980549050811015611158573373ffffffffffffffffffffffffffffffffffffffff1660098281548110610fdf57610fde612bc3565b5b9060005260206000200160009054906101000a900473ffffffffffffffffffffffffffffffffffffffff1673ffffffffffffffffffffffffffffffffffffffff160361102d57809150611145565b60045484600860006009858154811061104957611048612bc3565b5b9060005260206000200160009054906101000a900473ffffffffffffffffffffffffffffffffffffffff1673ffffffffffffffffffffffffffffffffffffffff1673ffffffffffffffffffffffffffffffffffffffff168152602001908152602001600020546110b99190612435565b6110c391906124a6565b60086000600984815481106110db576110da612bc3565b5b9060005260206000200160009054906101000a900473ffffffffffffffffffffffffffffffffffffffff1673ffffffffffffffffffffffffffffffffffffffff1673ffffffffffffffffffffffffffffffffffffffff168152602001908152602001600020819055505b808061115090612bf2565b915050610fa7565b506000600860003373ffffffffffffffffffffffffffffffffffffffff1673ffffffffffffffffffffffffffffffffffffffff16815260200190815260200160002054036111aa576111a981611eaf565b5b50505050505050565b60008060009054906101000a900473ffffffffffffffffffffffffffffffffffffffff16905090565b600034905060008111611224576040517f08c379a000000000000000000000000000000000000000000000000000000000815260040161121b90612cac565b60405180910390fd5b600060055411801561123857506000600454115b611277576040517f08c379a000000000000000000000000000000000000000000000000000000000815260040161126e90612d18565b60405180910390fd5b60006005546004548361128a9190612435565b61129491906124a6565b9050600360009054906101000a900473ffffffffffffffffffffffffffffffffffffffff1673ffffffffffffffffffffffffffffffffffffffff166370a08231336040518263ffffffff1660e01b81526004016112f19190612168565b602060405180830381865afa15801561130e573d6000803e3d6000fd5b505050506040513d601f19601f820116820180604052508101906113329190612674565b811115611374576040517f08c379a000000000000000000000000000000000000000000000000000000000815260040161136b90612daa565b60405180910390fd5b600081670de0b6b3a76400008461138b9190612435565b61139591906124a6565b9050848110156113da576040517f08c379a00000000000000000000000000000000000000000000000000000000081526004016113d190612e16565b60405180910390fd5b8381111561141d576040517f08c379a000000000000000000000000000000000000000000000000000000000815260040161141490612e16565b60405180910390fd5b600360009054906101000a900473ffffffffffffffffffffffffffffffffffffffff1673ffffffffffffffffffffffffffffffffffffffff166323b872dd3330856040518463ffffffff1660e01b815260040161147c939291906128fe565b6020604051808303816000875af115801561149b573d6000803e3d6000fd5b505050506040513d601f19601f820116820180604052508101906114bf9190612632565b5081600460008282546114d2919061259d565b9250508190555082600560008282546114eb919061259d565b925050819055506000826004546115029190612569565b90506000805b600980549050811015611773573373ffffffffffffffffffffffffffffffffffffffff16600982815481106115405761153f612bc3565b5b9060005260206000200160009054906101000a900473ffffffffffffffffffffffffffffffffffffffff1673ffffffffffffffffffffffffffffffffffffffff16036116485760019150600454670de0b6b3a7640000866115a19190612435565b600860003373ffffffffffffffffffffffffffffffffffffffff1673ffffffffffffffffffffffffffffffffffffffff16815260200190815260200160002054856115ec9190612435565b6115f6919061259d565b61160091906124a6565b600860003373ffffffffffffffffffffffffffffffffffffffff1673ffffffffffffffffffffffffffffffffffffffff16815260200190815260200160002081905550611760565b600454600860006009848154811061166357611662612bc3565b5b9060005260206000200160009054906101000a900473ffffffffffffffffffffffffffffffffffffffff1673ffffffffffffffffffffffffffffffffffffffff1673ffffffffffffffffffffffffffffffffffffffff16815260200190815260200160002054846116d49190612435565b6116de91906124a6565b60086000600984815481106116f6576116f5612bc3565b5b9060005260206000200160009054906101000a900473ffffffffffffffffffffffffffffffffffffffff1673ffffffffffffffffffffffffffffffffffffffff1673ffffffffffffffffffffffffffffffffffffffff168152602001908152602001600020819055505b808061176b90612bf2565b915050611508565b5080611841576009339080600181540180825580915050600190039060005260206000200160009091909190916101000a81548173ffffffffffffffffffffffffffffffffffffffff021916908373ffffffffffffffffffffffffffffffffffffffff160217905550600454670de0b6b3a7640000856117f39190612435565b6117fd91906124a6565b600860003373ffffffffffffffffffffffffffffffffffffffff1673ffffffffffffffffffffffffffffffffffffffff168152602001908152602001600020819055505b50505050505050565b60016005541015611890576040517f08c379a000000000000000000000000000000000000000000000000000000000815260040161188790612354565b60405180910390fd5b600082116118d3576040517f08c379a00000000000000000000000000000000000000000000000000000000081526004016118ca90612ea8565b60405180910390fd5b81600360009054906101000a900473ffffffffffffffffffffffffffffffffffffffff1673ffffffffffffffffffffffffffffffffffffffff166370a08231336040518263ffffffff1660e01b815260040161192f9190612168565b602060405180830381865afa15801561194c573d6000803e3d6000fd5b505050506040513d601f19601f820116820180604052508101906119709190612674565b10156119b1576040517f08c379a00000000000000000000000000000000000000000000000000000000081526004016119a890612f14565b60405180910390fd5b80600454670de0b6b3a76400006005546119cb9190612435565b6119d591906124a6565b1115611a16576040517f08c379a0000000000000000000000000000000000000000000000000000000008152600401611a0d90612549565b60405180910390fd5b6000606483600b546064611a2a9190612569565b611a349190612435565b611a3e91906124a6565b600454611a4b919061259d565b600554600454611a5b9190612435565b611a6591906124a6565b600554611a729190612569565b90508060055403611a8d57600181611a8a9190612569565b90505b600360009054906101000a900473ffffffffffffffffffffffffffffffffffffffff1673ffffffffffffffffffffffffffffffffffffffff166323b872dd3330866040518463ffffffff1660e01b8152600401611aec939291906128fe565b6020604051808303816000875af1158015611b0b573d6000803e3d6000fd5b505050506040513d601f19601f82011682018060405250810190611b2f9190612632565b50600360009054906101000a900473ffffffffffffffffffffffffffffffffffffffff1673ffffffffffffffffffffffffffffffffffffffff166370a08231306040518263ffffffff1660e01b8152600401611b8b9190612168565b602060405180830381865afa158015611ba8573d6000803e3d6000fd5b505050506040513d601f19601f82011682018060405250810190611bcc9190612674565b6004819055503373ffffffffffffffffffffffffffffffffffffffff166108fc829081150290604051600060405180830381858888f19350505050158015611c18573d6000803e3d6000fd5b5047600581905550505050565b600080600b54600c54915091509091565b611c3e611d6d565b600073ffffffffffffffffffffffffffffffffffffffff168173ffffffffffffffffffffffffffffffffffffffff1603611cad576040517f08c379a0000000000000000000000000000000000000000000000000000000008152600401611ca490612fa6565b60405180910390fd5b611cb681611deb565b50565b60018054611cc690612ff5565b80601f0160208091040260200160405190810160405280929190818152602001828054611cf290612ff5565b8015611d3f5780601f10611d1457610100808354040283529160200191611d3f565b820191906000526020600020905b815481529060010190602001808311611d2257829003601f168201915b505050505081565b600360009054906101000a900473ffffffffffffffffffffffffffffffffffffffff1681565b611d75611fec565b73ffffffffffffffffffffffffffffffffffffffff16611d936111b3565b73ffffffffffffffffffffffffffffffffffffffff1614611de9576040517f08c379a0000000000000000000000000000000000000000000000000000000008152600401611de090613072565b60405180910390fd5b565b60008060009054906101000a900473ffffffffffffffffffffffffffffffffffffffff169050816000806101000a81548173ffffffffffffffffffffffffffffffffffffffff021916908373ffffffffffffffffffffffffffffffffffffffff1602179055508173ffffffffffffffffffffffffffffffffffffffff168173ffffffffffffffffffffffffffffffffffffffff167f8be0079c531659141344cd1fd0a4f28419497f9722a3daafe3b4186f6b6457e060405160405180910390a35050565b6009805490508110611ef6576040517f08c379a0000000000000000000000000000000000000000000000000000000008152600401611eed90613104565b60405180910390fd5b60096001600980549050611f0a9190612569565b81548110611f1b57611f1a612bc3565b5b9060005260206000200160009054906101000a900473ffffffffffffffffffffffffffffffffffffffff1660098281548110611f5a57611f59612bc3565b5b9060005260206000200160006101000a81548173ffffffffffffffffffffffffffffffffffffffff021916908373ffffffffffffffffffffffffffffffffffffffff1602179055506009805480611fb457611fb3613124565b5b6001900381819060005260206000200160006101000a81549073ffffffffffffffffffffffffffffffffffffffff0219169055905550565b600033905090565b6000819050919050565b61200781611ff4565b82525050565b60006040820190506120226000830185611ffe565b61202f6020830184611ffe565b9392505050565b600080fd5b61204481611ff4565b811461204f57600080fd5b50565b6000813590506120618161203b565b92915050565b60006020828403121561207d5761207c612036565b5b600061208b84828501612052565b91505092915050565b600080604083850312156120ab576120aa612036565b5b60006120b985828601612052565b92505060206120ca85828601612052565b9150509250929050565b6000806000606084860312156120ed576120ec612036565b5b60006120fb86828701612052565b935050602061210c86828701612052565b925050604061211d86828701612052565b9150509250925092565b600073ffffffffffffffffffffffffffffffffffffffff82169050919050565b600061215282612127565b9050919050565b61216281612147565b82525050565b600060208201905061217d6000830184612159565b92915050565b61218c81612147565b811461219757600080fd5b50565b6000813590506121a981612183565b92915050565b6000602082840312156121c5576121c4612036565b5b60006121d38482850161219a565b91505092915050565b600081519050919050565b600082825260208201905092915050565b60005b838110156122165780820151818401526020810190506121fb565b60008484015250505050565b6000601f19601f8301169050919050565b600061223e826121dc565b61224881856121e7565b93506122588185602086016121f8565b61226181612222565b840191505092915050565b600060208201905081810360008301526122868184612233565b905092915050565b6000819050919050565b60006122b36122ae6122a984612127565b61228e565b612127565b9050919050565b60006122c582612298565b9050919050565b60006122d7826122ba565b9050919050565b6122e7816122cc565b82525050565b600060208201905061230260008301846122de565b92915050565b7f4578686175737465640000000000000000000000000000000000000000000000600082015250565b600061233e6009836121e7565b915061234982612308565b602082019050919050565b6000602082019050818103600083015261236d81612331565b9050919050565b7f4572726f722c20616d6f756e7420455448206d75737420626520706f7369746960008201527f76652e0000000000000000000000000000000000000000000000000000000000602082015250565b60006123d06023836121e7565b91506123db82612374565b604082019050919050565b600060208201905081810360008301526123ff816123c3565b9050919050565b7f4e487b7100000000000000000000000000000000000000000000000000000000600052601160045260246000fd5b600061244082611ff4565b915061244b83611ff4565b925082820261245981611ff4565b915082820484148315176124705761246f612406565b5b5092915050565b7f4e487b7100000000000000000000000000000000000000000000000000000000600052601260045260246000fd5b60006124b182611ff4565b91506124bc83611ff4565b9250826124cc576124cb612477565b5b828204905092915050565b7f45786368616e676520726174652067726561746572207468616e20737065636960008201527f6669656420726174652e00000000000000000000000000000000000000000000602082015250565b6000612533602a836121e7565b915061253e826124d7565b604082019050919050565b6000602082019050818103600083015261256281612526565b9050919050565b600061257482611ff4565b915061257f83611ff4565b925082820390508181111561259757612596612406565b5b92915050565b60006125a882611ff4565b91506125b383611ff4565b92508282019050808211156125cb576125ca612406565b5b92915050565b60006040820190506125e66000830185612159565b6125f36020830184611ffe565b9392505050565b60008115159050919050565b61260f816125fa565b811461261a57600080fd5b50565b60008151905061262c81612606565b92915050565b60006020828403121561264857612647612036565b5b60006126568482850161261d565b91505092915050565b60008151905061266e8161203b565b92915050565b60006020828403121561268a57612689612036565b5b60006126988482850161265f565b91505092915050565b60006020820190506126b66000830184611ffe565b92915050565b7f546f6b656e20726573657276657320776173206e6f7420300000000000000000600082015250565b60006126f26018836121e7565b91506126fd826126bc565b602082019050919050565b60006020820190508181036000830152612721816126e5565b9050919050565b7f45544820726573657276657320776173206e6f7420302e000000000000000000600082015250565b600061275e6017836121e7565b915061276982612728565b602082019050919050565b6000602082019050818103600083015261278d81612751565b9050919050565b7f4e6565642065746820746f2063726561746520706f6f6c2e0000000000000000600082015250565b60006127ca6018836121e7565b91506127d582612794565b602082019050919050565b600060208201905081810360008301526127f9816127bd565b9050919050565b7f4e6f74206861766520656e6f75676820746f6b656e7320746f2063726561746560008201527f2074686520706f6f6c0000000000000000000000000000000000000000000000602082015250565b600061285c6029836121e7565b915061286782612800565b604082019050919050565b6000602082019050818103600083015261288b8161284f565b9050919050565b7f4e65656420746f6b656e7320746f2063726561746520706f6f6c2e0000000000600082015250565b60006128c8601b836121e7565b91506128d382612892565b602082019050919050565b600060208201905081810360008301526128f7816128bb565b9050919050565b60006060820190506129136000830186612159565b6129206020830185612159565b61292d6040830184611ffe565b949350505050565b7f4572726f722c20616d6f756e74206e65656420746f206265206772656174657260008201527f207468616e20302e000000000000000000000000000000000000000000000000602082015250565b60006129916028836121e7565b915061299c82612935565b604082019050919050565b600060208201905081810360008301526129c081612984565b9050919050565b7f4572726f722c207573657220646f6573206e6f74206861766520656e6f75676860008201527f20746f6b656e2e00000000000000000000000000000000000000000000000000602082015250565b6000612a236027836121e7565b9150612a2e826129c7565b604082019050919050565b60006020820190508181036000830152612a5281612a16565b9050919050565b7f4572726f722c206c6f776572207468616e206d696e20726174652e0000000000600082015250565b6000612a8f601b836121e7565b9150612a9a82612a59565b602082019050919050565b60006020820190508181036000830152612abe81612a82565b9050919050565b7f4572726f722c20626967676572207468616e206d617820726174652e00000000600082015250565b6000612afb601c836121e7565b9150612b0682612ac5565b602082019050919050565b60006020820190508181036000830152612b2a81612aee565b9050919050565b7f4572726f722c2063616e206e6f742072656d6f766520796f7572206c6971756960008201527f642066726f6d2074686520706f6f6c2e00000000000000000000000000000000602082015250565b6000612b8d6030836121e7565b9150612b9882612b31565b604082019050919050565b60006020820190508181036000830152612bbc81612b80565b9050919050565b7f4e487b7100000000000000000000000000000000000000000000000000000000600052603260045260246000fd5b6000612bfd82611ff4565b91507fffffffffffffffffffffffffffffffffffffffffffffffffffffffffffffffff8203612c2f57612c2e612406565b5b600182019050919050565b7f4572726f723a2045544820616d6f756e74206e65656420746f20706f7369746960008201527f76652e0000000000000000000000000000000000000000000000000000000000602082015250565b6000612c966023836121e7565b9150612ca182612c3a565b604082019050919050565b60006020820190508181036000830152612cc581612c89565b9050919050565b7f4572726f723a20506f6f6c206e6f7420696e697469616c697a65642e00000000600082015250565b6000612d02601c836121e7565b9150612d0d82612ccc565b602082019050919050565b60006020820190508181036000830152612d3181612cf5565b9050919050565b7f4572726f723a205573657220646f65736e2774206861766520656e6f7567682060008201527f746f6b656e2e0000000000000000000000000000000000000000000000000000602082015250565b6000612d946026836121e7565b9150612d9f82612d38565b604082019050919050565b60006020820190508181036000830152612dc381612d87565b9050919050565b7f4572726f722e20536c6970706167652100000000000000000000000000000000600082015250565b6000612e006010836121e7565b9150612e0b82612dca565b602082019050919050565b60006020820190508181036000830152612e2f81612df3565b9050919050565b7f4572726f722c20616d6f756e7420746f6b656e73206d75737420626520706f7360008201527f69746976652e0000000000000000000000000000000000000000000000000000602082015250565b6000612e926026836121e7565b9150612e9d82612e36565b604082019050919050565b60006020820190508181036000830152612ec181612e85565b9050919050565b7f5573657220646f6573206e6f74206861766520656e6f75676820746f6b656e2e600082015250565b6000612efe6020836121e7565b9150612f0982612ec8565b602082019050919050565b60006020820190508181036000830152612f2d81612ef1565b9050919050565b7f4f776e61626c653a206e6577206f776e657220697320746865207a65726f206160008201527f6464726573730000000000000000000000000000000000000000000000000000602082015250565b6000612f906026836121e7565b9150612f9b82612f34565b604082019050919050565b60006020820190508181036000830152612fbf81612f83565b9050919050565b7f4e487b7100000000000000000000000000000000000000000000000000000000600052602260045260246000fd5b6000600282049050600182168061300d57607f821691505b6020821081036130205761301f612fc6565b5b50919050565b7f4f776e61626c653a2063616c6c6572206973206e6f7420746865206f776e6572600082015250565b600061305c6020836121e7565b915061306782613026565b602082019050919050565b6000602082019050818103600083015261308b8161304f565b9050919050565b7f73706563696669656420696e646578206973206c6172676572207468616e207460008201527f6865206e756d626572206f66206c707300000000000000000000000000000000602082015250565b60006130ee6030836121e7565b91506130f982613092565b604082019050919050565b6000602082019050818103600083015261311d816130e1565b9050919050565b7f4e487b7100000000000000000000000000000000000000000000000000000000600052603160045260246000fdfea26469706673582212203f93bc22a168a41a43e2047092146dce3c6f78c57b20a6f0efcd66c9558aed0c64736f6c63430008110033",
  "linkReferences": {},
  "deployedLinkReferences": {}
}